:200000000C9434000C9451000C9451000C9451000C9451000C9451000C9451000C94510075
:200020000C9451000C9451000C9451000C9451000C9451000C9451000C9451000C94510038
:200040000C9451000C9451000C9451000C9451000C9451000C9451000C9451000C94510018
:200060000C9451000C94510011241FBECFEFD8E0DEBFCDBF11E0A0E0B1E0E8EAFEE002C079
:2000800005900D92A832B107D9F721E0A8E2B1E001C01D92A73AB207E1F70E9441070C9442
:2000A00052070C940000CF93DF93D82FC92F0E94AA008D2F9C2FDF91CF910C9491000C9400
:2000C000B300CF93DF93CDB7DEB72E970FB6F894DEBF0FBECDBFFC0187E0DE0118960190F2
:2000E0000D928A95E1F7CE0108960E94530087E0FE013896DE01119601900D928A95E1F727
:2001000029813A814B815C816D817E818F8190E02E960FB6F894DEBF0FBECDBFDF91CF9189
:200120000895FC01A281B3818C919681892B8C930895FC01A281B3819C91868180958923E1
:200140008C930895FC01A081B1818C919681892B8C930895FC01A081B1819C918681809556
:2001600089238C930895FC01A481B5819C918681982381E009F480E008950895CF93DF9304
:2001800000D000D000D00F92CDB7DEB7E62F642FF22F5E839C014E2F572F7E8181E001C0CA
:2001A000880FFA95EAF790E027960FB6F894DEBF0FBECDBFDF91CF910895CF93DF9300D0B3
:2001C00000D000D00F92CDB7DEB724E245E263E230E050E070E081E090E027960FB6F894E4
:2001E000DEBF0FBECDBFDF91CF910895CF93DF9300D000D000D00F92CDB7DEB724E245E271
:2002000063E230E050E070E082E090E027960FB6F894DEBF0FBECDBFDF91CF910895CF9364
:20022000DF9300D000D000D00F92CDB7DEB724E245E263E230E050E070E084E090E027968F
:200240000FB6F894DEBF0FBECDBFDF91CF910895CF93DF9300D000D000D00F92CDB7DEB7EC
:2002600024E245E263E230E050E070E088E090E027960FB6F894DEBF0FBECDBFDF91CF91D0
:200280000895CF93DF9300D000D000D00F92CDB7DEB724E245E263E230E050E070E080E160
:2002A00090E027960FB6F894DEBF0FBECDBFDF91CF910895CF93DF9300D000D000D00F9278
:2002C000CDB7DEB727E248E266E230E050E070E081E090E027960FB6F894DEBF0FBECDBF25
:2002E000DF91CF910895CF93DF9300D000D000D00F92CDB7DEB727E248E266E230E050E0D8
:2003000070E082E090E027960FB6F894DEBF0FBECDBFDF91CF910895CF93DF9300D000D0D6
:2003200000D00F92CDB7DEB727E248E266E230E050E070E084E090E027960FB6F894DEBFA9
:200340000FBECDBFDF91CF910895CF93DF9300D000D000D00F92CDB7DEB727E248E266E25E
:2003600030E050E070E088E090E027960FB6F894DEBF0FBECDBFDF91CF910895CF93DF93D0
:2003800000D000D000D00F92CDB7DEB727E248E266E230E050E070E080E190E027960FB6D5
:2003A000F894DEBF0FBECDBFDF91CF910895CF93DF9300D000D000D00F92CDB7DEB727E247
:2003C00048E266E230E050E070E080E290E027960FB6F894DEBF0FBECDBFDF91CF910895D8
:2003E000CF93DF9300D000D000D00F92CDB7DEB72AE24BE269E230E050E070E084E090E017
:00000001FF
